{
  "contractName": "Election",
  "abi": [
    {
      "inputs": [],
      "stateMutability": "nonpayable",
      "type": "constructor"
    },
    {
      "anonymous": false,
      "inputs": [
        {
          "indexed": false,
          "internalType": "uint256",
          "name": "id",
          "type": "uint256"
        },
        {
          "indexed": false,
          "internalType": "string",
          "name": "name",
          "type": "string"
        },
        {
          "indexed": false,
          "internalType": "uint256",
          "name": "voteCount",
          "type": "uint256"
        }
      ],
      "name": "electionUpdate",
      "type": "event"
    },
    {
      "inputs": [
        {
          "internalType": "uint256",
          "name": "",
          "type": "uint256"
        }
      ],
      "name": "candidate",
      "outputs": [
        {
          "internalType": "uint256",
          "name": "id",
          "type": "uint256"
        },
        {
          "internalType": "string",
          "name": "name",
          "type": "string"
        },
        {
          "internalType": "uint256",
          "name": "voteCount",
          "type": "uint256"
        }
      ],
      "stateMutability": "view",
      "type": "function",
      "constant": true
    },
    {
      "inputs": [],
      "name": "candidateCount",
      "outputs": [
        {
          "internalType": "uint256",
          "name": "",
          "type": "uint256"
        }
      ],
      "stateMutability": "view",
      "type": "function",
      "constant": true
    },
    {
      "inputs": [
        {
          "internalType": "address",
          "name": "",
          "type": "address"
        }
      ],
      "name": "votecheck",
      "outputs": [
        {
          "internalType": "bool",
          "name": "",
          "type": "bool"
        }
      ],
      "stateMutability": "view",
      "type": "function",
      "constant": true
    },
    {
      "inputs": [
        {
          "internalType": "uint256",
          "name": "candidateId",
          "type": "uint256"
        }
      ],
      "name": "vote",
      "outputs": [],
      "stateMutability": "nonpayable",
      "type": "function"
    }
  ],
  "bytecode": "0x6080604052600080553480156200001557600080fd5b506200005c6040518060400160405280600681526020017f6d6f64696a690000000000000000000000000000000000000000000000000000815250620000a860201b60201c565b620000a26040518060400160405280600781526020017f726168756c6a6900000000000000000000000000000000000000000000000000815250620000a860201b60201c565b620002c8565b600080815480929190620000bc9062000215565b919050555060405180606001604052806000548152602001828152602001600081525060016000805481526020019081526020016000206000820151816000015560208201518160010190805190602001906200011b9291906200012c565b506040820151816002015590505050565b8280546200013a9062000292565b90600052602060002090601f0160209004810192826200015e5760008555620001aa565b82601f106200017957805160ff1916838001178555620001aa565b82800160010185558215620001aa579182015b82811115620001a95782518255916020019190600101906200018c565b5b509050620001b99190620001bd565b5090565b5b80821115620001d8576000816000905550600101620001be565b5090565b7f4e487b7100000000000000000000000000000000000000000000000000000000600052601160045260246000fd5b6000819050919050565b600062000222826200020b565b91507fffffffffffffffffffffffffffffffffffffffffffffffffffffffffffffffff821415620002585762000257620001dc565b5b600182019050919050565b7f4e487b7100000000000000000000000000000000000000000000000000000000600052602260045260246000fd5b60006002820490506001821680620002ab57607f821691505b60208210811415620002c257620002c162000263565b5b50919050565b61087480620002d86000396000f3fe608060405234801561001057600080fd5b506004361061004c5760003560e01c80630121b93f1461005157806318df7f351461006d5780631de43c4b1461009d578063a9a981a3146100cf575b600080fd5b61006b600480360381019061006691906103cb565b6100ed565b005b61008760048036038101906100829190610456565b6102b8565b604051610094919061049e565b60405180910390f35b6100b760048036038101906100b291906103cb565b6102d8565b6040516100c693929190610561565b60405180910390f35b6100d761038a565b6040516100e4919061059f565b60405180910390f35b600260003373ffffffffffffffffffffffffffffffffffffffff1673ffffffffffffffffffffffffffffffffffffffff16815260200190815260200160002060009054906101000a900460ff161561017a576040517f08c379a000000000000000000000000000000000000000000000000000000000815260040161017190610606565b60405180910390fd5b60008111801561018c57506000548111155b6101cb576040517f08c379a00000000000000000000000000000000000000000000000000000000081526004016101c290610672565b60405180910390fd5b6001600082815260200190815260200160002060020160008154809291906101f2906106c1565b91905055506001600260003373ffffffffffffffffffffffffffffffffffffffff1673ffffffffffffffffffffffffffffffffffffffff16815260200190815260200160002060006101000a81548160ff0219169083151502179055507f523108b00f11d4cb164fec20a7d91695c7c58e86ff5bf8afe194d97650811b10816001600084815260200190815260200160002060010160016000858152602001908152602001600020600201546040516102ad93929190610800565b60405180910390a150565b60026020528060005260406000206000915054906101000a900460ff1681565b600160205280600052604060002060009150905080600001549080600101805461030190610739565b80601f016020809104026020016040519081016040528092919081815260200182805461032d90610739565b801561037a5780601f1061034f5761010080835404028352916020019161037a565b820191906000526020600020905b81548152906001019060200180831161035d57829003601f168201915b5050505050908060020154905083565b60005481565b600080fd5b6000819050919050565b6103a881610395565b81146103b357600080fd5b50565b6000813590506103c58161039f565b92915050565b6000602082840312156103e1576103e0610390565b5b60006103ef848285016103b6565b91505092915050565b600073ffffffffffffffffffffffffffffffffffffffff82169050919050565b6000610423826103f8565b9050919050565b61043381610418565b811461043e57600080fd5b50565b6000813590506104508161042a565b92915050565b60006020828403121561046c5761046b610390565b5b600061047a84828501610441565b91505092915050565b60008115159050919050565b61049881610483565b82525050565b60006020820190506104b3600083018461048f565b92915050565b6104c281610395565b82525050565b600081519050919050565b600082825260208201905092915050565b60005b838110156105025780820151818401526020810190506104e7565b83811115610511576000848401525b50505050565b6000601f19601f8301169050919050565b6000610533826104c8565b61053d81856104d3565b935061054d8185602086016104e4565b61055681610517565b840191505092915050565b600060608201905061057660008301866104b9565b81810360208301526105888185610528565b905061059760408301846104b9565b949350505050565b60006020820190506105b460008301846104b9565b92915050565b7f416c726561647920566f74656400000000000000000000000000000000000000600082015250565b60006105f0600d836104d3565b91506105fb826105ba565b602082019050919050565b6000602082019050818103600083015261061f816105e3565b9050919050565b7f63616e64696461746520646f6573206e6f742065786973740000000000000000600082015250565b600061065c6018836104d3565b915061066782610626565b602082019050919050565b6000602082019050818103600083015261068b8161064f565b9050919050565b7f4e487b7100000000000000000000000000000000000000000000000000000000600052601160045260246000fd5b60006106cc82610395565b91507fffffffffffffffffffffffffffffffffffffffffffffffffffffffffffffffff8214156106ff576106fe610692565b5b600182019050919050565b7f4e487b7100000000000000000000000000000000000000000000000000000000600052602260045260246000fd5b6000600282049050600182168061075157607f821691505b602082108114156107655761076461070a565b5b50919050565b60008190508160005260206000209050919050565b6000815461078d81610739565b61079781866104d3565b945060018216600081146107b257600181146107c4576107f7565b60ff19831686526020860193506107f7565b6107cd8561076b565b60005b838110156107ef578154818901526001820191506020810190506107d0565b808801955050505b50505092915050565b600060608201905061081560008301866104b9565b81810360208301526108278185610780565b905061083660408301846104b9565b94935050505056fea2646970667358221220e6de8b422bd36180a5040f315273e9c0a1a1bcee5cf4d4a430f8e988b630a51b64736f6c63430008090033",
  "immutableReferences": {},
  "source": "// SPDX-License-Identifier: MIT\npragma solidity 0.8.9;\n\ncontract Election {\n    uint256 public candidateCount = 0;\n\n    struct Candidate {\n        uint256 id;\n        string name;\n        uint256 voteCount;\n    }\n\n    event electionUpdate(uint256 id, string name, uint256 voteCount);\n\n    mapping(uint256 => Candidate) public candidate;\n    mapping(address => bool) public votecheck;\n\n    function addCandidate(string memory _name) private {\n        candidateCount++;\n        candidate[candidateCount] = Candidate(candidateCount, _name, 0);\n    }\n\n    constructor() {\n        addCandidate(\"modiji\");\n        addCandidate(\"rahulji\");\n    }\n\n    function vote(uint256 candidateId) public {\n        require(!votecheck[msg.sender], \"Already Voted\");\n        require(\n            candidateId > 0 && candidateId <= candidateCount,\n            \"candidate does not exist\"\n        );\n\n        candidate[candidateId].voteCount++;\n        votecheck[msg.sender] = true;\n        emit electionUpdate(\n            candidateId,\n            candidate[candidateId].name,\n            candidate[candidateId].voteCount\n        );\n    }\n}\n",
  "sourcePath": "/home/sherlock/Documents/DAPP/contracts/Election.sol",
  "compiler": {
    "name": "solc",
    "version": "0.8.9+commit.e5eed63a.Emscripten.clang"
  },
  "schemaVersion": "3.4.3",
  "updatedAt": "2021-11-04T18:29:44.932Z",
  "networkType": "ethereum",
  "devdoc": {
    "kind": "dev",
    "methods": {},
    "version": 1
  },
  "userdoc": {
    "kind": "user",
    "methods": {},
    "version": 1
  }
}